:020000040800F2
:1000000000500020253600086D3600086D360008C7
:100010006D3600086D3600086D36000800000000DF
:100020000000000000000000000000006D36000825
:100030006D360008000000006D3600086D360008BF
:100040006D3600086D3600086D3600086D36000804
:100050006D3600086D3600086D3600086D360008F4
:100060006D3600086D3600086D3600086D360008E4
:100070006D3600086D3600086D3600086D360008D4
:100080006D3600086D3600086D3600086D360008C4
:100090006D3600086D3600086D3600086D360008B4
:1000A0006D3600086D3600086D3600086D360008A4
:1000B0006D3600086D360008A10200086D36000894
:1000C0006D3600086D3600086D3600086D36000884
:1000D0006D360008A92900086D3600086D36000845
:1000E0006D3600086D3600086D360008000000000F
:1000F0000000000000000000000000000000000000
:0C01000000000000000000005FF808F1A3
:1001100010B5054C237833B9044B13B10448AFF341
:1001200000800123237010BDC800002000000000E3
:100130000C01000808B5034B1BB103490348AFF39A
:10014000008008BD00000000CC0000200C01000869
:1001500030B5012187B04FF4007001F065F86846B2
:1001600000F0BEFC1A4A00209369012443F0040306
:10017000936100F0D7FF4FF4807500234FF46022A5
:1001800001A91448019304930392ADF808508DF827
:10019000144000F03FFA0F48214600F067FA0D487E
:1001A00000F082FA0B4800F085FA0028FAD10948DD
:1001B00000F084FA074800F087FA04460028F9D1D5
:1001C0000121044800F052FA204607B030BD00BFBC
:1001D000001002400024014030B5012185B0042008
:1001E00001F02EF801A801F091FC012448F69F438C
:1001F0000B4D01A92846ADF80830019401F020FA12
:1002000022462146284601F0C1FC2146284601F03D
:10021000A3FC044B6846009302F03AF905B030BDE8
:10022000000800401E000001F8B504460D461948BC
:10023000012100F04DFA174A13689B07FCD51548B9
:10024000002100F045FA642300221248C16C013BF2
:100250000A44FBD1104BD01783FB0232C0EB621073
:1002600002F086FD22462B4602F0ECFD22460646B1
:100270000F462B460020094902F02CFC00220023E7
:1002800002F0E0FD02460B463046394602F024FCFF
:10029000F8BD00BF002401401F85EB510000F03F76
:1002A0002DE9F04F012187B0614801F0FBFE10B944
:1002B00007B0BDE8F08F01215D4801F0FFFE58A1B5
:1002C000D1E90001FFF7B0FF02460B46594D5A49EC
:1002D0005A4CC1E90023D5E9000102F0FBFB0646B8
:1002E0000F460022564BC4E9006703F03BF8002894
:1002F00061D1D4E90289D4E904233046394602F0B9
:10030000E9FB00224F4B02F0C7FED5E9042302F0BF
:1003100099FDD5E9082382468B46D5E90601CDE94A
:100320000223C4E906AB42464B46CDE904ABCDE916
:10033000000102F0F9FF002861D0DDE900018046EC
:100340008946C4E90201D5E90A233046394602F05C
:1003500079FD42464B4602F0BFFBDDE9042302F083
:10036000BBFB8046894602460B46DDE9000102F0F0
:10037000DBFF00283BD1344DC5E90089DDE902AB44
:1003800042464B465046594602F0ECFF28B15246D1
:100390005B46D046D946C5E900234046494603F0AE
:1003A00013F84FF0804380B2C4E90467A3F840001B
:1003B00007B0BDE8F08F1CA3D3E900233046D4E991
:1003C0000289394602F0B0FF002894D0D5E9022313
:1003D0003046394602F036FD02460B464046494655
:1003E00002F07AFB80468946C4E9028983E7164D0C
:1003F000DDE9002390469946C5E90023BEE7DDE923
:1004000002AB404652465B46494602F08DFF00284B
:1004100099D052465B46D046D946C4E9022392E7BA
:10042000CDCCCCCCCCCCEC3F0000000000C0724066
:10043000000800400000002068010020E8000020C3
:1004400000C072C000408F403001002030B4002452
:100450004FF41F053A4B3B4A196882B041F0010145
:100460001960596818460A405A601A6822F0847266
:1004700022F480321A601A6822F480221A605A68C4
:1004800022F4FE025A609D60009401941A6842F4BE
:1004900080321A6003E0009BB3F5A06F09D00368B7
:1004A00003F400330193009B01330093019B002B65
:1004B000F1D0234B1B6813F4003318BF01230193C1
:1004C000019B012B06D04FF000621F4B9A6002B0D7
:1004D00030BC70471D491A4B08681A4640F010009E
:1004E0000860086820F003000860086840F0020017
:1004F00008605968596059685960596841F48061C9
:100500005960596821F47C115960596841F4E81127
:100510005960196841F08071196013689B01FCD51E
:100520005368074923F003035360536843F0020301
:1005300053604B6803F00C03082BFAD1C3E700BFEC
:10054000001002400000FFF800ED00E00020024033
:10055000114A536803F00C03082B09D00F4B0E4AC5
:100560000F495268C2F303128A5CD3400B61704793
:1005700053685168C3F38343C90303F1020306D5EB
:100580005268920303D4054A02FB03F3E7E7054AE6
:1005900002FB03F3E3E700BF0010024000127A0001
:1005A0003000002000093D0008B5174B984206D0E6
:1005B000164B98420FD0164B984218D008BD012117
:1005C0004FF4007000F048FEBDE8084000214FF4F1
:1005D000007000F041BE01214FF4806000F03CFE4D
:1005E000BDE8084000214FF4806000F035BE0121D5
:1005F0004FF4004000F030FEBDE8084000214FF409
:10060000004000F029BE00BF002401400028014046
:10061000003C0140436830B423F470230C790A682D
:1006200023F4807343EA04231343436085680A4A32
:10063000D1E902432A4023434C79134343EA44035C
:1006400083600A7CC36A013AD2B223F4700343EA9E
:100650000253C36230BC7047FDF7F1FF0023012253
:10066000036002748380C0E902337047836819B164
:1006700043F001038360704723F0010383607047F8
:10068000836819B143F480738360704723F48073E7
:1006900083607047C9B2436812B10B43436070472F
:1006A00023EA010343607047836843F008038360D3
:1006B000704700BF8068C0F3C0007047836843F094
:1006C00004038360704700BF8068C0F380007047F8
:1006D000836819B143F4A0038360704723F4A00337
:1006E000836070478068C0F3805070474368013969
:1006F00023F4604343EA413343607047436819B1D0
:1007000043F400634360704723F400634360704721
:10071000092970B429D90726A1F10A0404EB44047D
:10072000C568A640A34025EA06052B43C360062AF8
:100730004FF01F040BD8013A02EB8202436B944046
:1007400023EA040391401943416370BC70470C2AAB
:1007500016D8073A02EB8202036B944023EA0403A3
:1007600091401943016370BC7047072501EB4106B6
:100770000469B540B34024EA050423430361D6E786
:100780000D3A02EB8202C36A944023EA04039140CB
:100790001943C16270BC7047836819B143F4801378
:1007A0008360704723F4801383607047C06C80B20D
:1007B000704700BF014B1868704700BF4C240140D0
:1007C000436819B143F480634360704723F4806346
:1007D00043607047436819B143F4805343607047E6
:1007E00023F4805343607047836823F4E043194344
:1007F00081607047836819B143F400438360704798
:1008000023F4004383607047836819B143F40213F3
:100810008360704723F40213836070478068C0F3DD
:1008200040507047092970B41CD90726A1F10A0469
:1008300004EB4404C568A640A34025EA06052B4303
:10084000C3601F24836B0232C3F30155521BD2B223
:1008500002EB8202944023EA04039140194381632E
:1008600070BC7047072501EB41060469B540B340F1
:1008700024EA050423430361E3E700BF836B0139E6
:1008800023F4401343EA015383637047002382B08B
:1008900001930190019B19440191019B1A6002B0E0
:1008A000704700BF002382B001930190019B283361
:1008B00019440191019B186880B202B0704700BFD3
:1008C000436823F4400323F40073194341607047E5
:1008D00041628262704700BF436823F01F031943DF
:1008E00041607047054A936818B143F40003936070
:1008F000704723F400039360704700BF0024014059
:100900000368194214BF012000207047C9430160E9
:10091000704700BF4368006810EA112004D0C9B2D4
:10092000194214BF01200020704700BF6FEA112157
:100930000160704708B52F4B98421CD02E4B98424F
:1009400023D02E4B98422AD02D4B984209D02D4BC4
:1009500098422ED02C4B984235D02C4B98423CD00C
:1009600008BD0121202000F077FCBDE808400021EF
:10097000202000F071BC0121042000F06DFCBDE8D6
:1009800008400021042000F067BC0121082000F08D
:1009900063FCBDE808400021082000F05DBC012197
:1009A000102000F059FCBDE808400021102000F0A4
:1009B00053BC0121402000F04FFCBDE8084000215D
:1009C000402000F049BC0121802000F045FCBDE83A
:1009D00008400021802000F03FBC01214FF48070CE
:1009E00000F03AFCBDE8084000214FF4807000F0B0
:1009F00033BC00BF00080140000C01400010014062
:100A00000014014000180140001C0140002001407A
:100A1000012108B5084600F01FFCBDE80840002190
:100A2000012000F019BC00BF2DE9F041CD780A8803
:100A3000EB0648BF8B7805F00F0748BF1F4312F045
:100A4000FF0F21D000234FF0010C4FF00F08066874
:100A500002E00133082B16D00CFA03F131EA02044C
:100A6000F7D19C0008FA04FE26EA0E0607FA04F401
:100A7000282D46EA04062ED0482D03F1010308BFB5
:100A80000161082BE8D10660FF2A22D908234FF024
:100A9000010C4FF00F08466802E00133102B17D00D
:100AA0000CFA03F434EA0201F7D19900203908FA6C
:100AB00001FE26EA0E0607FA01F1282D46EA010694
:100AC0000BD0482D03F1010308BF0461102BE7D1BF
:100AD0004660BDE8F0814161BBE74461DDE700BFEE
:100AE0004FF6FF7240F2024302804380704700BF1E
:100AF0008368194214BF012000207047806880B2CB
:100B0000704700BFC368194214BF0120002070471E
:100B1000C06880B2704700BF016170474161704793
:100B20000AB1016170474161704700BFC160704701
:100B300041F4803383618161836183698369704794
:100B400010B44FF68074044A13682340194341EAF5
:100B50000011116010BC704700000140014B18608B
:100B6000704700BF1C0020420028194B00F44012BF
:100B7000B4BFDB695B68B2F5401F30B484B21ED0ED
:100B8000C20213D50322C0F30345AA4023EA02039D
:100B900043F0706319B1420D1201944023430C4A93
:100BA0000028B4BFD361536030BC7047420D1201BE
:100BB00004FA02F223EA020343F07063EAE7044D09
:100BC00023F070636A6822F070626A60E2E700BF37
:100BD0000000014010B40F2401F0FC0303F1804336
:100BE00003F5803301F003019A6889008C4022EA02
:100BF00004029A609A6800FA01F11143996010BCEE
:100C0000704700BF014B1860704700BFDC002042F6
:100C100008B50D4B012198420AD04FF4800000F036
:100C200027FBBDE8084000214FF4800000F020BB06
:100C30004FF4001000F01CFBBDE8084000214FF409
:100C4000001000F015BB00BF00540040F0B5044692
:100C50000D4687B0868801A800F092FA03982B49C8
:100C600026F03F06A1FB00313604890C360C8FB20A
:100C70003E43A68022882B6822F00102244E1204F3
:100C8000120CB34222801BD85B00B0FBF3F39BB283
:100C9000042B38BF042301372784A38322881D4BEC
:100CA00042F0010222802288A9886E892889134097
:100CB000AA8931430B4302432380228107B0F0BD50
:100CC0004BF6FF72EE8896421AD003EB830303EBD8
:100CD0008303B0FBF3F39BB243F48043C3F30B02F3
:100CE0000AB943F001034FF4967202FB01F10A4A7C
:100CF00043F40043A2FB0121890901312184CCE79F
:100D000003EB4303B0FBF3F39BB2E7E783DE1B4344
:100D1000A0860100F5FBFFFFD34D621010B4002246
:100D200041F288344FF4804303498260C0E90041B6
:100D3000838110BC704700BF0000FFBF038819B15A
:100D400043F001030380704723F001031B041B0CD5
:100D500003807047838819B143F400638380704730
:100D600023F400631B041B0C83807047838819B134
:100D700043F480538380704723F480531B041B0C7F
:100D800083807047038819B143F4807303807047F0
:100D900023F480731B041B0C03807047038819B174
:100DA00043F400730380704723F400731B041B0C8F
:100DB00003807047038819B143F480630380704750
:100DC00023F480631B041B0C03807047838901F0AC
:100DD000FE019BB223F0FE030B438381704700BFEB
:100DE000838919B143F001038381704723F0010324
:100DF0001B041B0C83817047038819B143F0400327
:100E00000380704723F040031B041B0C03807047D2
:100E1000838812B119438180704723EA01018180E0
:100E2000704700BF01827047008AC0B2704700BFA0
:100E300022B141F0010189B20182704701F0FE0147
:100E400089B20182704700BF002382B001930190F4
:100E5000019B19440191019B188802B0704700BFA3
:100E6000038819B143F4004303807047C3F30E03B2
:100E7000038070470388B1F5006F1BBF23F4006344
:100E80001B0443F400631B0C038070470388B1F517
:100E9000005F1BBF23F400531B0443F400531B0CDF
:100EA00003807047038819B143F48053038070476F
:100EB00023F480531B041B0C03807047FFF7DABF39
:100EC000038819B143F020030380704723F0200307
:100ED0001B041B0C03807047008B000A704700BF87
:100EE000038819B143F010030380704723F0100307
:100EF0001B041B0C03807047038819B943F080035F
:100F00000380704723F080031B041B0C0380704791
:100F1000838BB1F5804F1DBF23F480431B041B0C52
:100F200043F4804383837047838A008B43EA004302
:100F30000B4023F07F43581AB0FA80F04009704705
:100F4000838A008B43EA004020F07F40704700BF57
:100F5000002382B00A0F0093019301900092009B3E
:100F600021F07F4153B1019B14330193019B1B6816
:100F70000B4214BF0120002002B07047019B090CF6
:100F800018330193F2E700BFC94389B281827047E9
:100F90008388808A9BB2084006D003EA114313F489
:100FA000E06F14BF01200020704700BFC94389B221
:100FB000818270474FF41F000C4B0D4A196841F0B5
:100FC0000101196059680A405A601A6822F0847257
:100FD00022F480321A601A6822F480221A605A6859
:100FE00022F4FE025A609860704700BF0010024071
:100FF0000000FFF80C4BB0F5803F1A6822F48032F5
:101000001A601A6822F480221A6008D0B0F5802F86
:1010100004D11A6842F4A0221A60704770471A6817
:1010200042F480321A60704700100240002382B000
:101030000A4A0193136813F4003F019B03F1010373
:101040000193019B05D0054B1868C0F3404002B0E6
:101050007047B3F5A06FEDD1F5E700BF0010024077
:10106000034A136823F0F80343EAC0001060704796
:1010700000100240014B1860704700BF0000424260
:10108000034A536823F47C131943014351607047AA
:1010900000100240014B1860704700BF60004242E0
:1010A000034A536823F0030318435060704700BF9E
:1010B00000100240024B586800F00C00704700BF5F
:1010C00000100240034A536823F0F00318435060B5
:1010D000704700BF00100240034A536823F4E063E6
:1010E00018435060704700BF00100240034A536825
:1010F00023F4605343EAC000506070470010024080
:10110000044A137811B103431370704723EA0003B4
:101110001370704709100240014B1860704700BF00
:10112000D8004242034A536823F4404318435060B6
:10113000704700BF001002400022064B01281A70C1
:101140001A7005D0042802D105221A707047704722
:101150001870704720100240014B1860704700BFA4
:1011600080044242024A136A18431062704700BF6B
:1011700000100240014B1860704700BF3C0442421F
:101180001F4A10B4536803F00C03042B01D0082B42
:1011900020D01C4B03601A491B4A4C68C4F303144B
:1011A000145DE34043604C68C4F30224145D23FAE9
:1011B00004F484604C68C4F3C224145DE340C3604B
:1011C000496810BCC1F381310A44127CB3FBF2F3CD
:1011D0000361704753685168C3F38343C90303F144
:1011E000020307D55268920304D4064A02FB03F3B4
:1011F0000360D0E7054A02FB03F30360CBE700BFBF
:101200000010024000127A004400002000093D0056
:10121000044A536911B103435361704723EA000341
:101220005361704700100240044A936911B10343AF
:101230009361704723EA00039361704700100240F6
:10124000044AD36911B10343D361704723EA000311
:10125000D361704700100240044AD36811B10343C0
:10126000D360704723EA0003D36070470010024048
:10127000044A136911B103431361704723EA000361
:101280001361704700100240014B1860704700BFA7
:1012900040044242014B1860704700BF4C0042427C
:1012A000014B1870704700BF071002404309012B23
:1012B0000BD0022B094B00F01F000CBF1B6A5B6AAE
:1012C00023FA00F000F001007047044B00F01F000B
:1012D0001B6823FA00F000F0010070470010024084
:1012E000024A536A43F08073536270470010024011
:1012F000034B9B68184214BF01200020704700BFB9
:1013000000100240014B1870704700BF0A100240E5
:1013100070B4058C1B4E25F001052D042D0C0584A1
:10132000048B42EA031324F0F3042404240C058CF8
:101330001C43B042A4B2ADB21BD0134B984218D09C
:10134000B0F1804F15D0A3F59833984211D003F532
:10135000806398420DD003F58063984209D025F050
:101360000A0341EA030545F001050483058470BCC6
:10137000704725F002050D4345F0010504830584FF
:1013800070BC7047002C01400034014070B440F63E
:10139000FF45048C120224F010042404240C04845D
:1013A000048B42EA0333174A2540068C1D430C0187
:1013B0009042ADB2B6B2A4B21AD0134B984217D035
:1013C000B0F1804F14D0A3F59833984210D003F5B4
:1013D000806398420CD003F58063984208D026F0D1
:1013E000A0060E4346F010040583048470BC7047C9
:1013F00026F02006344344F010040583048470BCB6
:10140000704700BF002C01400034014008B57C4B00
:10141000984242D0B0F1804F4BD07A4B984252D094
:10142000794B98422FD0794B984256D0784B9842BE
:101430005DD0784B984264D0774B984200F083801F
:10144000764B984267D0764B984200F08880754B77
:10145000984200F09080744B984200F09880734B53
:10146000984200F09E80724B984200F0A480714B2D
:10147000984200F0AC80704B984258D06F4B984225
:1014800000F0B18008BD01210420FFF7F1FEBDE8A6
:10149000084000210420FFF7EBBE01214FF400605B
:1014A000FFF7DAFEBDE8084000214FF40060FFF7C7
:1014B000D3BE01210846FFF7DBFEBDE8084000214E
:1014C0000120FFF7D5BE01210220FFF7D1FEBDE8C4
:1014D000084000210220FFF7CBBE01210820FFF7C2
:1014E000C7FEBDE8084000210820FFF7C1BE01216A
:1014F0001020FFF7BDFEBDE8084000211020FFF7D7
:10150000B7BE01212020FFF7B3FEBDE8084000214F
:101510002020FFF7ADBE01214FF40020FFF79CFE15
:10152000BDE8084000214FF40020FFF795BE0121DF
:101530004FF40030FFF790FEBDE8084000214FF463
:101540000030FFF789BE01214FF40050FFF784FE01
:10155000BDE8084000214FF40050FFF77DBE012197
:101560004FF48010FFF778FEBDE8084000214FF4EB
:101570008010FFF771BE01214FF40010FFF76CFEE1
:10158000BDE8084000214FF40010FFF765BE0121BF
:101590004020FFF76DFEBDE8084000214020FFF726
:1015A00067BE01218020FFF763FEBDE808400021EF
:1015B0008020FFF75DBE01214FF48070FFF758FED9
:1015C000BDE8084000214FF48070FFF751BE0121B3
:1015D0004FF48030FFF740FEBDE8084000214FF493
:1015E0008030FFF739BE01214FF48020FFF734FE31
:1015F000BDE8084000214FF48020FFF72DBE00BF5A
:10160000002C01400004004000080040000C004095
:10161000001000400014004000340140004C014024
:10162000005001400054014000180040001C0040E0
:1016300000200040004001400044014000480140BB
:10164000274A0388904270B49BB212D002F5006220
:1016500090420ED0B0F1804F0BD0A2F5983290425C
:1016600007D002F58062904203D002F5806290427A
:1016700003D14A8823F0700313431A4D8C88A84283
:101680000A8815D005F58065A84211D0CE8823F4CC
:1016900040739BB205F58C353343A84203808485A3
:1016A00002850CD170BC0B7A0386012383827047BC
:1016B000038084850285012370BC838270470A4BB6
:1016C0009842EFD003F540639842EBD003F5806376
:1016D0009842E7D003F580639842E3D0EBE700BF80
:1016E000002C01400010004000340140038CF0B495
:1016F00023F001031B041B0C0D890384028C4E880C
:1017000022F0020284881204038B3543120C23F06A
:1017100073032A43164D1B040E881B0CA842A4B267
:1017200043EA06030FD005F50065A8420BD005F586
:101730004065A84207D005F58065A84203D005F5AD
:101740008065A8420DD14E8922F008028D89CF898B
:1017500032438E8824F4407422F004023D43324325
:101760002C43C98884800383F0BC8186028470473F
:10177000002C0140028CF0B422F010021204120C72
:101780000D890284038C4E88848823F02003028B09
:101790001B04354322F4E6421B0C43EA05131204F2
:1017A0000E88144D120C42EA0622A8429BB2A4B243
:1017B00092B20AD005F50065A84206D0C988848097
:1017C0000283F0BC0187038470474FF6BF754F89D1
:1017D00023F0800343EA07138E89CF891D408B884D
:1017E00024F440643E4345EA031344EA86049BB272
:1017F000A4B2E3E7002C0140028CF0B422F4807222
:101800001204120C0D890284038C4E8823F4007399
:1018100084881B04828B35431B0C43EA052322F08A
:101820007302154D12040E88120CA8429BB2A4B28A
:1018300042EA06020AD005F50065A84206D0C9882A
:1018400084808283F0BC8187038470474FF6FF3524
:101850004F8923F4006343EA07238E89CF891D4013
:101860008B8824F440543E4345EA032344EA06149B
:101870009BB2A4B2E3E700BF002C0140028C70B41D
:1018800022F480521204120C0D890284038C4E88BB
:10189000848823F40053828B1B04354322F4E642F0
:1018A0001B0C43EA053312040E880E4D120C42EA5B
:1018B0000622A8429BB2A4B292B20BD005F50065F5
:1018C000A84207D0C9888480828370BCA0F84010E9
:1018D000038470478D8924F4804444EA8514A4B2BB
:1018E000F0E700BF002C0140F8B50D460E88AA882D
:1018F00049882B890446002E47D0042E00F09280A0
:10190000082E4FD040F6FF46008C1B0320F4805079
:101910000004000C2084A08B4A4F43EA02230640B7
:10192000208C33430A03BC429BB280B292B218D0DF
:10193000454EB44215D0B4F1804F12D0A6F598367A
:10194000B4420ED006F58066B4420AD006F5806631
:10195000B44206D047F6FF5202400A4342F4805296
:1019600004E020F40050024342F48052A383228416
:10197000A38BEA8823F440631B041B0CA383A38B73
:1019800043EA02239BB2A383F8BDFFF7C1FC038B9C
:10199000EA8823F00C031B041B0C0383038B134303
:1019A0000383F8BD008C274E20F480700004000CE7
:1019B0002084A08B278C80B220F0F300024342EAFF
:1019C0000312B4424FEA012392B2BFB29BB217D0C6
:1019D0001D48844214D0B4F1804F11D0A0F5983046
:1019E00084420DD000F58060844209D000F580600B
:1019F000844205D027F420670F4347F4807304E046
:101A000027F400773B4343F48073A2832384A38BA2
:101A1000EA8823F00C031B041B0CA383A38B134342
:101A2000A383F8BDFFF7B2FC038BEA8823F440637D
:101A30001B041B0C0383038B43EA02239BB2038327
:101A4000F8BD00BF002C014000340140F8B50D4640
:101A50004988AA880029B5F800C00CBF02260026D4
:101A6000012A0CBF022701272B89BCF1000F1DD1D1
:101A7000FFF74EFC038BE98823F00C031B041B0CBF
:101A80000383038B3A460B43038331462B89FFF7CD
:101A90007DFC038BEA8823F440631B041B0C038347
:101AA000038B43EA02239BB20383F8BDFFF76EFC6E
:101AB000038BE98823F440631B041B0C0383038B13
:101AC0003A4643EA01239BB2038331462B89FFF751
:101AD0001FFC038BEA8823F00C031B041B0C0383FD
:101AE000038B13430383F8BD10B40B884C888A889A
:101AF0002343CC8813430A8923434C8913438A899F
:101B000023431343A0F8443010BC704700234FF622
:101B1000FF7203808280C38043800372704700BFDE
:101B20000023038043808380C380038143818381BA
:101B3000C381704700230122038082804380C380D9
:101B4000038170470023038043808380C380038127
:101B500043818381704700BF038819B143F00103BB
:101B60000380704723F001031B041B0C03807047A4
:101B7000B0F8443021B143F40043A0F8443070473A
:101B8000C3F30E03A0F84430704700BF838912B13D
:101B900019438181704723EA01018181704700BFA9
:101BA000818270470A43A0F848207047FFF7EEBFD4
:101BB000038923F007031B041B0C0381704700BF3C
:101BC000038923F070031B041B0C19430181038953
:101BD00043F0070303817047602938B50D4604467A
:101BE00011464FF001020DD0FFF792FB218921F041
:101BF00070010904090C29432181238943F007035B
:101C0000238138BDFFF7C2FBF0E700BF10B40489A1
:101C100042EA03231943E4B20C43A4B204810389CA
:101C200010BC23F077031B041B0C43F077030381E4
:101C3000704700BF10B4048942EA03231943E4B299
:101C40000C43A4B20481038910BC43F48043038194
:101C5000704700BF10B404890A4342EA0323E4B288
:101C60001C43A4B2048110BC704700BF018582826E
:101C7000704700BF038823F070031B041B0C19433B
:101C800001807047038923F070031B041B0C194368
:101C900001817047F0B40589078B048C0B4E24F04A
:101CA000220425F00705240442EA03133E402D04D4
:101CB000240C2D0C1C4346F480732943A4B243F03A
:101CC0000103018103830484F0BC7047FCFCFFFF27
:101CD000038B23F070031B041B0C19430183704713
:101CE000038B23F4E0431B041B0C43EA012189B25C
:101CF00001837047838B23F070031B041B0C194373
:101D000081837047838B23F4E0431B041B0C43EA5D
:101D1000012189B281837047038819B143F08003A0
:101D20000380704723F080031B041B0C0380704763
:101D3000838819B143F004038380704723F00403C0
:101D40001B041B0C83807047838819B143F0080380
:101D50008380704723F008031B041B0C83807047AB
:101D6000838819B143F001038380704723F0010396
:101D70001B041B0C83807047038B23F008031B0498
:101D80001B0C194301837047038B23F400631B046E
:101D90001B0C43EA012189B201837047838B23F036
:101DA00008031B041B0C194381837047838B23F4A6
:101DB00000631B041B0C43EA012189B28183704735
:101DC000038B23F004031B041B0C1943018370478E
:101DD000038B23F480631B041B0C43EA012189B2AB
:101DE00001837047838B23F004031B041B0C1943EE
:101DF00081837047838B23F480631B041B0C43EAAD
:101E0000012189B281837047038B23F080031B0477
:101E10001B0C194301837047038BC3F30E0343EA82
:101E2000012189B201837047838B23F080031B0457
:101E30001B0C194381837047838BC3F30E0343EA62
:101E4000012189B281837047038C23F002031B04B4
:101E50001B0C194301847047038C23F008031B04F7
:101E60001B0C194301847047038C23F020031B04CF
:101E70001B0C43EA011189B201847047038C23F0E3
:101E800080031B041B0C43EA011189B201847047D3
:101E9000038C23F400731B041B0C43EA012189B259
:101EA00001847047038C23F400631B041B0C43EA7A
:101EB000012189B201847047038C23F400531B0471
:101EC0001B0C43EA013189B20184704710B401242C
:101ED000038C8C4023EA04030384038C02FA01F18F
:101EE000194389B2018410BC704700BF10B40424A8
:101EF000038C8C4023EA04030384038C02FA01F16F
:101F0000194389B2018410BC704700BF10B401248A
:101F1000038C8C4023EA040321F008040384183066
:101F20006CB10439C1F34E010B58120223F4E043A3
:101F30000B500B5892B21A430A5010BC7047490814
:101F40000B5810BC23F070030B500B581A430A5067
:101F5000704700BF038819B143F002030380704744
:101F600023F002031B041B0C03807047038819B184
:101F700043F004030380704723F004031B041B0C8D
:101F800003807047838819B143F0800383807047D2
:101F900023F080031B041B0C83807047038823F00D
:101FA00008031B041B0C038003881943018070473E
:101FB000838823F070031B041B0C838083881943E0
:101FC00081807047038923F007031B041B0C0381E6
:101FD0000389194301817047038923F080031B049F
:101FE0001B0C038103891943018170478184704769
:101FF0008185704781867047018770478187704768
:10200000A0F84010704700BF038B23F00C031B04A3
:102010001B0C0383038B194301837047038B23F449
:1020200040631B041B0C0383038B43EA012189B229
:1020300001837047838B23F00C031B041B0C8383E9
:10204000838B194381837047838B23F440631B0484
:102050001B0C8383838B43EA012189B28183704700
:10206000038823F440731B041B0C0380038819436B
:1020700001807047808E7047008F7047808F704757
:10208000B0F84000704700BF808C7047008D7047EB
:10209000038A194214BF012000207047C94389B246
:1020A00001827047038A828911EA030092B203D049
:1020B0000A4214BF01200020704700BFC94389B203
:1020C0000182704708B5264B984218D0254B98429C
:1020D00021D0254B98422AD0244B984203D0244B40
:1020E000984230D008BD01214FF40020FFF7C0F81E
:1020F000BDE8084000214FF40020FFF7B9B80121E6
:102100004FF48040FFF7A8F8BDE8084000214FF4E5
:102110008040FFF7A1B801214FF40030FFF7A8F885
:10212000BDE8084000214FF40030FFF7A1B80121BD
:102130004FF48020FFF79CF8BDE8084000214FF4E1
:102140008020FFF795B801214FF48010FFF790F839
:10215000BDE8084000214FF48010FFF789B800BFA8
:10216000003801400044004000480040004C00405E
:102170000050004030B50D460446038ACA889BB221
:1021800023F4405313438A8903828089234B89882F
:10219000034028890B43698903430B43A381A38A26
:1021A00087B09BB223F44073134301A8A382FEF7C8
:1021B000E7FFDDE903311A482A68844208BF0B466D
:1021C000A18903EB830309044CBF5200920003EB87
:1021D0008303B3FBF2F364221248A589A0FB03C179
:1021E000490902FB11332A044FEA01110AD41B01E9
:1021F0003233A0FB0323C3F343130B439BB223816E
:1022000007B030BDDB003233A0FB0323C3F342121F
:1022100042EA01039BB2238107B030BDF3E9FFFF1F
:10222000003801401F85EB5100234FF416514FF445
:1022300040220160C0E901328381704730B40B88CD
:102240004D888C88028A2B43C988234392B20B4362
:1022500022F470621343038230BC70470023038072
:1022600043808380C3807047838919B143F400534E
:102270008381704723F400531B041B0C8381704738
:10228000012310B401F01F04C1F34211012903FA24
:1022900004F30FD002290CBF1030143022B10268B1
:1022A00010BC134303607047026810BC22EA0303AA
:1022B000036070470C30F1E7838A12B119438182C1
:1022C000704723EA01018182704700BF038A23F02F
:1022D0000F031B041B0C0382038A194301827047FE
:1022E000838923F400631B041B0C838183891943B6
:1022F00081817047838919B143F00203838170475C
:1023000023F002031B041B0C83817047038A23F014
:1023100020031B041B0C0382038A194301827047AC
:10232000038A19B143F480430382704723F4804346
:102330001B041B0C03827047C1F3080181807047A6
:102340008088C0F308007047838943F001038381CC
:10235000704700BF038BDBB20383038B43EA012189
:1023600001837047038B03F47F430383038B19437B
:1023700001837047838A19B143F020038382704739
:1023800023F020031B041B0C83827047838A19B13E
:1023900043F010038382704723F010031B041B0CCF
:1023A00083827047838A19B143F0080383827047A0
:1023B00023F008031B041B0C83827047838919B127
:1023C00043F4004383817047C3F30E038381704756
:1023D000838A19B143F400638382704723F4006356
:1023E0001B041B0C83827047838A23F004031B04A5
:1023F0001B0C8382838A194381827047838A19B1B7
:1024000043F002038382704723F002031B041B0C7A
:10241000838270470388194214BF0120002070474F
:10242000C94389B2018070470123C1F3421210B43D
:10243000012A01F01F0403FA04F314D0022A0CBF8E
:10244000028A828A1340028892B24BB10123090AA0
:1024500003FA01F10A4214BF1846002010BC70476D
:10246000184610BC704782891340ECE70123090A23
:102470008B40DB439BB20380704700BF40F0BF60DE
:10248000024B40F40030D860704700BF00ED00E020
:10249000F0B401240178C37801F01F0294404E0982
:1024A000BBB10F4B8278DD684778E8430F23C0F358
:1024B0000220C0F10405C340AF4013403B43094A2A
:1024C0001B01DBB2114481F8003342F82640F0BC16
:1024D0007047044B203643F82640F0BC704700BFDD
:1024E00000ED00E000E100E021F0604121F07F011B
:1024F000014B01439960704700ED00E0044A136905
:1025000011B103431361704723EA0003136170475D
:1025100000ED00E0044A042813680CBF43F00403F4
:1025200023F004031360704710E000E0012130B590
:10253000084687B0FEF778FE01210220FEF714FB63
:1025400001214FF40010FEF77BFE01210820FEF769
:102550006BFE0E4B01A90E480193FEF765FA4FF092
:1025600080614FF480450B4C0B4A0C4B2046049184
:102570000121CDE90223ADF81450FEF7DFFB204620
:1025800002A9FEF763FB07B030BD00BF0003031CC8
:10259000000C014000540040A08601000000FFBF75
:1025A00070B505460E4617480121FEF7EBFB164CA9
:1025B00021461448FEF7B8FC0028F9D03146002225
:1025C0001048FEF735FC114C21460E48FEF7ACFCD6
:1025D0000028F9D029460B48FEF724FC0C4C214674
:1025E0000848FEF7A1FC0028F9D001210548FEF7B4
:1025F000D5FB074D034C29462046FEF795FC0028E5
:10260000F9D070BD005400400100030082000700B3
:102610008400070038B505460F4C4E21237843F05F
:10262000040318462370FFF7BBFF322000F0E6F8E2
:1026300020784E2140EA0510C0B2FFF7B1FF2378A1
:102640004E2103F0FB0318462370FFF7A9FFBDE8F6
:102650003840322000F0D2B80801002010B50D4AF1
:102660000446107871B900F0FE0318464E2113702D
:10267000FFF796FF2009FFF7CDFF2046BDE8104089
:10268000FFF7C8BF40F0010318464E211370FFF753
:1026900087FFEFE7080100200121FFF7DFBF00BF40
:1026A00003291DD8DFE801F017100902543060F04B
:1026B0007F00C0B20021FFF7D1BF143060F07F006F
:1026C000C0B20021FFF7CABF403060F07F00C0B247
:1026D0000021FFF7C3BF40F080000021FFF7BEBF1D
:1026E000704700BF10B50F2000F06EF80320FFF711
:1026F00091FF042000F068F80320FFF78BFF6420AF
:1027000000F07CF80320FFF785FF012000F05CF863
:102710000220FFF77FFF012000F056F8002128205B
:10272000FFF79CFF012000F04FF800210C20FFF77D
:1027300095FF012000F048F80C4C00210620FFF71F
:102740008DFF012000F040F823784E2143F008036C
:1027500018462370FFF724FF23784E2103F0FD0372
:1027600023701846BDE81040FFF71ABF080100208B
:1027700008B501200021FFF771FFBDE8084040F2D5
:10278000DC5000F03BB800BF10B50446007830B113
:102790000121FFF763FF14F8010F0028F8D110BDE5
:1027A00000F00700C00038B540F040000D460021A1
:1027B000FFF754FF6C1E073514F8010F0121FFF7D6
:1027C0004DFFAC42F8D138BD10B5044686B001A823
:1027D000FEF7D6FC029B084AA2FB03235B0B04FB1B
:1027E00003F30093009B2BB1009B013B0093009BE4
:1027F000002BF9D106B010BD5917B7D110B504465A
:1028000086B001A8FEF7BCFC029B084AA2FB03238A
:102810009B0D04FB03F30093009B2BB1009B013B3A
:102820000093009B002BF9D106B010BD6BCA5F6B03
:1028300000B587B001A8FEF7A3FC029B00930098A7
:1028400007B05DF804FB00BFF8B5C7B2C0F30726B8
:10285000C0F30745040E40211448FFF7DBFD0028B4
:10286000F9D039461148FFF767FD40210F48FFF7BF
:10287000D1FD0028F9D031460C48FFF75DFD40211D
:102880000A48FFF7C7FD0028F9D029460748FFF797
:1028900053FD40210548FFF7BDFD0028F9D0214632
:1028A000BDE8F8400148FFF747BD00BF00380140D0
:1028B00010B4421893785478415C1B0403EB042352
:1028C000D0780B4403EB006010BC704700B50121C9
:1028D00083B00820FEF7A8FC01A8FEF701F9044B1D
:1028E00001A904480193FEF79FF803B05DF804FBCB
:1028F00000400310000C014010B5064C2068FFF7A3
:10290000A3FF2068FFF7A0FF2068BDE81040FFF795
:102910009BBF00BF5800002030B5012187B00520C3
:10292000FEF782FC1E4C01214FF48040FEF77CFC38
:102930001C4B204669460093FEF776F804224FF4BC
:102940008063694620468DF80320ADF800304FF4CF
:10295000E135FEF769F800234FF4402204F54054B6
:1029600002A92046CDE90253ADF814300492FFF7D6
:1029700001FC2046012240F22551FFF781FC204650
:102980000121FFF771FC25224FF4807301A88DF817
:102990000420ADF80630FFF77BFD07B030BD00BF67
:1029A000000801400002031810B540F2255182B022
:1029B0001B48FFF739FD08B902B010BD1848FFF7F2
:1029C000BFFC184CC0B28DF807002378012B15D03E
:1029D000154B16481A789DF80710D2B2C9B2815427
:1029E0001A780132D2B21A701A78642A0ED8017895
:1029F0001A7891420ED0C8220D4B1A7140F225511F
:102A0000074802B0BDE81040FFF730BD00221A7041
:102A10002270F3E70021012219702270EEE700BF57
:102A20000038014009010020D4010020700100207D
:102A300058000020024B5B78012B00D070475BE709
:102A40007001002010B5074C2378012B00D010BD79
:102A5000054B5B78012B02D00023237010BDFFF7DC
:102A60004BFFF9E7090100207001002038B50B7811
:102A70000D4604466BB140212046FFF7CBFC0028F1
:102A8000F9D029782046FFF757FC15F8013F002BB5
:102A9000F1D138BD044A05491368002B08BF0B4625
:102AA00018441060184670470C010020E80100200F
:102AB0004FF0FF30704700BF4FF4005300204B60D1
:102AC000704700BF104670471046704781F00041C4
:102AD00002E000BF83F0004330B54FEA41044FEA03
:102AE000430594EA050F08BF90EA020F1FBF54EA9E
:102AF000000C55EA020C7FEA645C7FEA655C00F03A
:102B0000E2804FEA5454D4EB5555B8BF6D420CDD0A
:102B10002C4480EA020281EA030382EA000083EA8D
:102B2000010180EA020281EA0303362D88BF30BD2D
:102B300011F0004F4FEA01314FF4801C4CEA113183
:102B400002D0404261EB410113F0004F4FEA0333E2
:102B50004CEA133302D0524263EB430394EA050F6D
:102B600000F0A780A4F10104D5F1200E0DDB02FADC
:102B70000EFC22FA05F2801841F1000103FA0EF270
:102B8000801843FA05F359410EE0A5F120050EF136
:102B9000200E012A03FA0EFC28BF4CF0020C43FA67
:102BA00005F3C01851EBE37101F0004507D54FF074
:102BB000000EDCF1000C7EEB00006EEB0101B1F5C4
:102BC000801F1BD3B1F5001F0CD349085FEA30000A
:102BD0004FEA3C0C04F101044FEA445212F5800F15
:102BE00080F09A80BCF1004F08BF5FEA500C50F1B2
:102BF000000041EB045141EA050130BD5FEA4C0C95
:102C0000404141EB010111F4801FA4F10104E9D11D
:102C100091F0000F04BF01460020B1FA81F308BF14
:102C20002033A3F10B03B3F120020CDA0C3208DDE0
:102C300002F1140CC2F10C0201FA0CF021FA02F1BB
:102C40000CE002F11402D8BFC2F1200C01FA02F12B
:102C500020FA0CFCDCBF41EA0C019040E41AA2BF50
:102C600001EB0451294330BD6FEA04041F3C1CDA18
:102C70000C340EDC04F11404C4F1200220FA04F038
:102C800001FA02F340EA030021FA04F345EA0301E2
:102C900030BDC4F10C04C4F1200220FA02F001FAA4
:102CA00004F340EA0300294630BD21FA04F0294626
:102CB00030BD94F0000F83F4801306BF81F48011BF
:102CC0000134013D4EE77FEA645C18BF7FEA655C32
:102CD00029D094EA050F08BF90EA020F05D054EA04
:102CE000000C04BF1946104630BD91EA030F1EBF09
:102CF0000021002030BD5FEA545C05D1400049410D
:102D000028BF41F0004130BD14F580043CBF01F5FF
:102D1000801130BD01F0004545F0FE4141F47001E5
:102D20004FF0000030BD7FEA645C1ABF19461046C0
:102D30007FEA655C1CBF0B46024650EA013406BFC1
:102D400052EA033591EA030F41F4002130BD00BF80
:102D500090F0000F04BF0021704730B54FF480643D
:102D600004F132044FF000054FF0000150E700BFBE
:102D700090F0000F04BF0021704730B54FF480641D
:102D800004F1320410F0004548BF40424FF000010A
:102D90003EE700BF42004FEAE2014FEA31014FEA4D
:102DA00002701FBF12F07F4393F07F4F81F060519C
:102DB000704732F07F4208BF704793F07F4F04BFE7
:102DC00041F40021704730B54FF4607401F00045C4
:102DD00021F000411CE700BF50EA010208BF704724
:102DE00030B54FF000050AE050EA010208BF704715
:102DF00030B511F0004502D5404261EB41014FF47E
:102E0000806404F132045FEA915C3FF4D8AE4FF085
:102E100003025FEADC0C18BF03325FEADC0C18BF68
:102E2000033202EBDC02C2F1200300FA03FC20FAB9
:102E300002F001FA03FE40EA0E0021FA02F1144406
:102E4000BDE600BF70B54FF0FF0C4CF4E06C1CEA1F
:102E500011541DBF1CEA135594EA0C0F95EA0C0F90
:102E600000F0DEF82C4481EA030621EA4C5123EA03
:102E70004C5350EA013518BF52EA033541F4801132
:102E800043F4801338D0A0FB02CE4FF00005E1FBE5
:102E900002E506F00042E0FB03E54FF00006E1FB2F
:102EA00003569CF0000F18BF4EF0010EA4F1FF0472
:102EB000B6F5007F64F5407404D25FEA4E0E6D41B2
:102EC00046EB060642EAC62141EA55514FEAC520C3
:102ED00040EA5E504FEACE2EB4F1FD0C88BFBCF53F
:102EE000E06F1ED8BEF1004F08BF5FEA500E50F1F0
:102EF000000041EB045170BD06F0004646EA0101B6
:102F000040EA020081EA0301B4EB5C04C2BFD4EBE7
:102F10000C0541EA045170BD41F480114FF0000EE0
:102F2000013C00F3AB8014F1360FDEBF002001F04E
:102F3000004170BDC4F10004203C35DA0C341BDCC8
:102F400004F11404C4F1200500FA05F320FA04F09A
:102F500001FA05F240EA020001F0004221F00041CE
:102F600010EBD37021FA04F642EB06015EEA430E41
:102F700008BF20EAD37070BDC4F10C04C4F1200571
:102F800000FA04F320FA05F001FA04F240EA020024
:102F900001F0004110EBD37041F100015EEA430EF5
:102FA00008BF20EAD37070BDC4F1200500FA05F215
:102FB0004EEA020E20FA04F301FA05F243EA020394
:102FC00021FA04F001F0004121FA04F220EA0200A3
:102FD00000EBD3705EEA430E08BF20EAD37070BDE9
:102FE00094F0000F0FD101F00046400041EB0101C9
:102FF00011F4801F08BF013CF7D041EA060195F0AB
:10300000000F18BF704703F00046520043EB030364
:1030100013F4801F08BF013DF7D043EA0603704751
:1030200094EA0C0F0CEA135518BF95EA0C0F0CD05C
:1030300050EA410618BF52EA4306D1D181EA0301A2
:1030400001F000414FF0000070BD50EA410606BF9C
:103050001046194652EA430619D094EA0C0F02D1E1
:1030600050EA013613D195EA0C0F05D152EA033626
:103070001CBF104619460AD181EA030101F0004144
:1030800041F0FE4141F470014FF0000070BD41F08D
:10309000FE4141F4780170BD70B54FF0FF0C4CF467
:1030A000E06C1CEA11541DBF1CEA135594EA0C0F86
:1030B00095EA0C0F00F0A7F8A4EB050481EA030ED3
:1030C00052EA03354FEA013100F088804FEA0333BA
:1030D0004FF0805545EA131343EA12634FEA022288
:1030E00045EA111545EA10654FEA00260EF0004149
:1030F0009D4208BF964244F1FD0404F5407402D29B
:103100005B084FEA3202B61A65EB03055B084FEA2B
:1031100032024FF480104FF4002CB6EB020E75EB28
:10312000030E22BFB61A754640EA0C005B084FEA50
:103130003202B6EB020E75EB030E22BFB61A7546CD
:1031400040EA5C005B084FEA3202B6EB020E75EB18
:10315000030E22BFB61A754640EA9C005B084FEA90
:103160003202B6EB020E75EB030E22BFB61A75469D
:1031700040EADC0055EA060E18D04FEA051545EA8C
:1031800016754FEA06164FEAC30343EA52734FEA35
:10319000C2025FEA1C1CC0D111F4801F0BD141EAAE
:1031A00000014FF000004FF0004CB6E711F4801F13
:1031B00004BF01430020B4F1FD0C88BFBCF5E06FF3
:1031C0003FF6AFAEB5EB030C04BFB6EB020C5FEA03
:1031D000500C50F1000041EB045170BD0EF0004E58
:1031E0004EEA113114EB5C04C2BFD4EB0C0541EA8A
:1031F000045170BD41F480114FF0000E013C90E687
:1032000045EA060E8DE60CEA135594EA0C0F08BF4A
:1032100095EA0C0F3FF43BAF94EA0C0F0AD150EA49
:1032200001347FF434AF95EA0C0F7FF425AF1046DC
:1032300019462CE795EA0C0F06D152EA03353FF404
:10324000FDAE1046194622E750EA410618BF52EA81
:1032500043067FF4C5AE50EA41047FF40DAF52EA55
:1032600043057FF4EBAE12E74FF0FF3C06E000BFF2
:103270004FF0010C02E000BF4FF0010C4DF804CDFF
:103280004FEA410C7FEA6C5C4FEA430C18BF7FEABF
:103290006C5C1BD001B050EA410C0CBF52EA430CED
:1032A00091EA030F02BF90EA020F0020704710F16D
:1032B000000F91EA030F58BF994208BF90422CBFFC
:1032C000D8176FEAE37040F0010070474FEA410CF5
:1032D0007FEA6C5C02D150EA013C07D14FEA430C13
:1032E0007FEA6C5CD6D152EA033CD3D05DF8040B84
:1032F000704700BF8446104662468C4619466346B6
:1033000000E000BF01B5FFF7B7FF002848BF10F18C
:10331000000F01BD4DF808EDFFF7F4FF0CBF0120D1
:1033200000205DF808FB00BF4DF808EDFFF7EAFF4D
:1033300034BF012000205DF808FB00BF4DF808ED08
:10334000FFF7E0FF94BF012000205DF808FB00BFFD
:103350004DF808EDFFF7CEFF94BF012000205DF887
:1033600008FB00BF4DF808EDFFF7C4FF34BF012094
:1033700000205DF808FB00BF4FEA410212F5001281
:1033800015D211D56FF47873B3EB625212D94FEAAC
:10339000C12343F0004343EA505311F0004F23FA96
:1033A00002F018BF404270474FF00000704750EAEB
:1033B000013005D111F0004008BF6FF000407047A8
:1033C0004FF00000704700BF4A0011D212F5001202
:1033D00011D20DD56FF47873B3EB62520ED44FEA6D
:1033E000C12343F0004343EA505323FA02F07047ED
:1033F0004FF00000704750EA013002D14FF0FF302B
:1034000070474FF00000704770B500260C4D0D4C12
:10341000641BA410A64209D100F0ACFD00260A4DA1
:103420000A4C641BA410A64205D170BD55F8043B9C
:1034300098470136EEE755F8043B98470136F2E726
:103440008C3F00088C3F00088C3F0008903F00082C
:103450002DE980488FB0FFF769F8FFF743F9FFF7D0
:1034600087F9FFF759FAFCF773FEFCF7B5FE012167
:103470000920FDF7D9FE01210420FDF7D5FE06A89D
:10348000FDF72EFB584B06A958480693FDF7CCFADA
:1034900001210420FDF7C8FE01210846FDF7D0FEFA
:1034A00006A8FDF71DFB524B06A952480693FDF7EF
:1034B000BBFA07A8FEF72AFB472244F61F6307A9B9
:1034C0004FF08040CDE90723FEF7BAF80AA8FEF7CF
:1034D00027FB4FF47A740022474B0AA94FF0804033
:1034E000ADF830200A93ADF82E40FEF7C7F9012160
:1034F0004FF08040FEF730FBDFF8F8A0002238A143
:10350000D1E900010124BDF82E303C4D2B60DAF8E2
:103510000030CAF80020DAF8003043F42043CAF83B
:103520000030374BDA625C63FCF77EFE89468046EA
:10353000344BC3E90089FFF71FFF334B0446D3E93F
:10354000002310461946CDE90423FFF715FF2F4B42
:103550000546D3E9026739463046FFF70DFF83463B
:103560002046FFF705FC02460B4640464946FFF75A
:10357000B1FA0022264BFFF765FCFFF725FF8046D6
:103580005846FFF7F5FB02460B4630463946FFF733
:10359000A1FA00221F4BFFF755FCFFF715FF039020
:1035A0002846CDF808B0FFF7E3FB02460B46DDE9FD
:1035B0000401FFF78FFA0022164BFFF743FCFFF7D9
:1035C00003FF4346CDE9005022461349134800F05B
:1035D0004FF812491248FFF749FA8FE7AFF300801E
:1035E000CDCCCCCCCCCCEC3F00400310000C014047
:1035F00008000218000801406000010018010020C6
:10360000002401403801002030010020E8000020A3
:103610000000594000408F40C03E0008400100209B
:1036200000380140002103E00B4B5B58435004314C
:103630000A480B4B42189A42F6D30A4A02E000238A
:1036400042F8043B084B9A42F9D3FCF7FFFEFFF720
:10365000DBFEFFF7FDFE7047943F000800000020EE
:10366000C4000020C8000020E8010020FEE70000A0
:103670000EB46FF0004100B59CB01DAB02900690F7
:10368000079104910848094953F8042B05910068F3
:1036900002A9019300F068F80022029B1A701CB086
:1036A0005DF804EB03B07047600000200802FFFFE4
:1036B0002DE9F0478E6882469E420C469146984618
:1036C00038D8B1F80CC01CF4906F31D0626925680D
:1036D000096902EB42026F1A02EBD27201335510F4
:1036E0003B449D4238BF1D461CF4806F30D02946B4
:1036F00000F040FB064650B90C234FF0FF30CAF8EB
:103700000030A38943F04003A381BDE8F0873A4627
:10371000216900F0BBFAA38923F4906343F080038E
:10372000A38126613E44266046466561ED1BA56087
:10373000464500D9464632464946206800F0B4FA6C
:10374000A36800209B1BA36023681E442660DCE75F
:103750002A4600F069FB06460028E2D1216950465E
:1037600000F0BCFAC8E700002DE9F04F1E468B8937
:103770009DB01B0607460D4614460ED50B6963B96E
:10378000402100F0F7FA2860286120B90C233B6043
:103790004FF0FF30C9E040236B61002309932023E1
:1037A0008DF8293030234FF0010ADFF898918DF819
:1037B0002A30039623461E4613F8012B0AB1252A08
:1037C000F9D1B6EB040B0BD05B46224629463846AE
:1037D000FFF76EFF013000F0A380099B5B44099363
:1037E0003378002B00F09C8000234FF0FF32CDE9AE
:1037F00005230136049307938DF853301A9334460A
:10380000052214F8011B4F4800F032FA049BC0B99E
:10381000D90644BF20228DF853201A0744BF2B221B
:103820008DF8532032782A2A13D0344600200A26F5
:10383000079A214611F8013B303B092B4BD970B94F
:1038400014E0A0EB09000AFA00F0184304902646A1
:10385000D5E7039A111D12680391002A01DB079234
:1038600004E0524243F002030792049323782E2B84
:103870000CD163782A2B33D1039B02341A1D1B68A9
:103880000392002BB8BF4FF0FF3305932E4E032257
:103890002178304600F0ECF938B14023801B03FA60
:1038A00000F0049B01340343049314F8011B062227
:1038B00026488DF8281000F0DBF9002838D0244B7A
:1038C00013BB039B073323F0070308330393099BC0
:1038D000434409936EE706FB023201200C46A8E739
:1038E00000230A26194601340593204610F8012BBF
:1038F000303A092A03D9002BC8D00591C6E706FB48
:10390000012101230446F0E703AB00932A46114B43
:1039100004A93846AFF30080B0F1FF3F8046D6D10E
:10392000AB895B063FF534AF09981DB0BDE8F08F59
:1039300003AB00932A46074B04A9384600F082F8EF
:10394000EAE700BFE03E0008E63E0008EA3E000865
:1039500000000000B13600082DE9F04791461F46EF
:103960008A680B6906469342B8BF1346C9F800300F
:1039700091F843200C46DDF8208012B10133C9F8DC
:1039800000302368990642BFD9F800300233C9F8E5
:103990000030256815F0060507D104F1190AE3681F
:1039A000D9F800209B1AAB4229DC94F843302268F6
:1039B000003318BF012392062ED404F14302394686
:1039C0003046C047013021D02368E56803F0060384
:1039D000042B18BF0025D9F800204FF0000908BFBC
:1039E000AD1AA368226908BF25EAE5759342C4BFF2
:1039F0009B1AED181A344D451AD1002008E0012316
:103A0000524639463046C047013003D14FF0FF30AF
:103A1000BDE8F0870135C2E73020E11881F84300A6
:103A20005A1C94F845102244023382F84310C4E72C
:103A30000123224639463046C0470130E6D009F11D
:103A40000109D8E72DE9F04306460C4601F1430091
:103A5000097E85B06E29984617460C9B00F0BB8006
:103A600024D8632939D00AD8002900F0C480582905
:103A700000F0928004F1420584F8421035E0642998
:103A800001D06929F6D125681A6815F0800F02F176
:103A900004012CD012681960002A03DA2D23524247
:103AA00084F84330DFF8C0C10A233FE0732900F0F7
:103AB000A68008D86F2921D07029DBD1226842F076
:103AC0002002226003E0752918D07829D2D178220B
:103AD000DFF898C184F8452062E01A6804F14205D5
:103AE000111D1960136884F84230012394E01268B4
:103AF00015F0400F196018BF12B2CDE7D4F800C01E
:103B00001A681CF0800F02F104051D6001D01268D4
:103B100003E01CF0400FFAD012886F290CBF082375
:103B20000A23DFF844C1002184F843106568002DA2
:103B3000A8BF2168A560A4BF21F0040121600AB9D3
:103B4000002D46D00546B2FBF3F103FB112E1CF805
:103B50000EE0934205F801ED39D9082B0BD123680B
:103B6000DA0708D5236962689A42DEBF302305F878
:103B7000013C05F1FF35401B2061CDF800803B463C
:103B800003AA21463046FFF7E7FE013049D14FF046
:103B9000FF3005B0BDE8F083DFF8CCC084F84510F5
:103BA0001D68216855F8042B1D600D060BD5CD0747
:103BB00044BF41F0200121601AB9236823F020039B
:103BC00023601023AFE74B0648BF92B2EFE70A46E7
:103BD000B9E70546C1E71A68D4F800C0151D616948
:103BE0001CF0800F1D60136801D0196003E01CF009
:103BF000400FFAD01980002305462361BDE71A68FB
:103C0000111D1960156800216268284600F030F81F
:103C100008B1401B606063682361002384F843306F
:103C2000ABE723692A4639463046C0470130AED05B
:103C300023689B0713D4E068039B9842B8BF1846DB
:103C4000A7E701234A4639463046C04701309ED097
:103C50000135E368039A9B1AAB42F2DCEBE70025DF
:103C600004F11909F5E700BFF13E0008023F000822
:103C700010B5C9B202449042034601D1002303E0CB
:103C80001C7801308C42F6D1184610BD0A4491428E
:103C900000F1FF3300D1704710B511F8014B91428C
:103CA00003F8014FF9D110BD884210B501EB0203B2
:103CB00002D983421C4607D8421E994208D011F807
:103CC000014B02F8014FF8E783189A1A9A4200D183
:103CD00010BD14F8011D03F8011DF7E738B50546BE
:103CE000002943D051F8043C0C1F002BB8BFE41846
:103CF00000F0D0F81E4A1368104633B963601460B0
:103D00002846BDE8384000F0CBB8A3420BD9216863
:103D10006218934201BF1A685B68521822606360A0
:103D20000460EDE713465A680AB1A242FAD919684D
:103D30005818A0420BD120680144581882421960DB
:103D4000DED110685268014419605A60D8E702D980
:103D50000C232B60D4E7206821188A4201BF116828
:103D600052680918216062605C60C9E738BD00BF15
:103D700010010020F8B5CD1C25F0030508350C2DE9
:103D800038BF0C25002D064601DBA94203D90C23C0
:103D900033600020F8BD00F07DF821490A68144620
:103DA0009CB9204F3B6823B92146304600F062F8A9
:103DB00038602946304600F05DF8431C23D10C23BF
:103DC0003046336000F06CF8E3E723685B1B17D4E0
:103DD0000B2B03D923601C44256004E06368A242D6
:103DE0000CBF0B605360304600F05AF804F10B0032
:103DF000231D20F00700C21ACCD01B1AA350C9E71C
:103E000022466468CCE7C41C24F00304A042E3D03B
:103E1000211A304600F02EF80130DDD1CFE700BF87
:103E20001001002014010020F8B5074614460E4684
:103E300021B91146BDE8F840FFF79CBF22B9FFF752
:103E40004DFF25462846F8BD00F030F8A0420FD2BD
:103E500021463846FFF78EFF05460028F2D031464E
:103E60002246FFF713FF31463846FFF737FFE9E7F1
:103E70003546E7E738B50023054C0546084623607C
:103E8000FEF708FE431C02D1236803B12B6038BD46
:103E9000D8010020014800F011B800BFE001002067
:103EA000014800F00CB800BFE001002051F8043CCC
:103EB000181F002BBCBF0B58C018704770477047C5
:103EC00025642E256C6420204F75743A2025642EBD
:103ED000256C6420493A2025642E256C640D0A0067
:103EE000232D302B2000686C4C00656667454647E3
:103EF0000030313233343536373839414243444566
:103F000046003031323334353637383961626364D4
:103F100065660000000000000000000000000000D6
:103F20000000000000000000000000000000000091
:103F30000000000000000000000000000000000081
:103F40000000000000000000000000000000000071
:103F50000000000000000000000000000000000061
:103F60000000000000000000000000000000000051
:103F700000000000F8B500BFF8BC08BC9E467047C2
:0C3F8000F8B500BFF8BC08BC9E467047B6
:043F8C0035010008F3
:043F90001101000813
:103F94000000000000909A40FCA9F1D24D62503F0D
:103FA4000000000000407F4000000000005CA240D0
:103FB4000000000000E08540CDCCCCCCCCCC10403F
:103FC40000000000000000000102030406070809C5
:103FD40000A24A04000000000102030401020304D9
:103FE400060708090204060815CD5B07FA0000005D
:103FF4006400002000000000343F0008543F000823
:10400400143F000800000000000000000000000051
:10401400000000000000000000000000000000009C
:10402400000000000000000000000000000000008C
:10403400000000000000000000000000000000007C
:10404400000000000000000000000000000000006C
:044054000000000068
:040000050800362594
:00000001FF
